:030000000205D026
:0C05D000787FE4F6D8FD75813402061730
:0A07AC003F065B4F666D7D077F6F0F
:1007280002330000021700000228000A0215000A1E
:10073800022F000002310000011900012A000424E0
:100748004000000004203F19999A041C3ECCCCCDEF
:10075800021A0000022B0000022D0000020800000F
:10076800020A0000020C0000020E00000210000045
:070778000212000001140051
:10043700E4F5807590F0758901758CFF758A9CD2FB
:10044700AFD2A9D28CD288D2A8C2A6C2A71202481C
:10045700AE17AF187C007D641201E5AD077F01126E
:1004670006CB120780AE17AF187C007D641201E53A
:100477007E007F0ACFCDCFCECCCE1201E5AD077F70
:10048700021206CB120780AE17AF187C007D0A1246
:1004970001E57F031206CB120780AE28AF297C0047
:1004A7007D641201E5AD077F041206CB120780AE0B
:1004B70028AF297C007D641201E57E007F0ACFCD3D
:1004C700CFCECCCE1201E5AD077F051206CB1207C2
:1004D70080AE28AF297C007D0A1201E57F0612064F
:1004E700CB120780E52A64016003020454AD18ACFF
:1004F70017AF16AE151205098E2F8F30E4F52A02B5
:0205070004549A
:10050900C3EF9DF51BEE9CF51AC3E51B952CFDE584
:100519001A952BFC120119AB27AA26A925A8241282
:10052900000E1201528E0A8F0BAC1AAD1BEC120190
:1005390019AB23AA22A921A82012000E1201528E5A
:100549000C8F0DE52C25E0FFE52B33FEC3E51B9F42
:10055900FFE51A9EFEE52E2FFDE52D3EFC12011941
:10056900AB1FAA1EA91DA81C12000E1201528E0E45
:100579008F0FE50B250DFFE50A350CFEE50F2FF56D
:1005890009E50E3EF508E5092532F532E50835316C
:10059900F531852B2D852C2E851A2B851B2CC364B3
:1005A9008094805005E4F531F532D3E5329464E561
:1005B90031648094804006753100753264E4F50831
:0605C900F509AE31AF326E
:0105CF002209
:03000B0002065C8E
:04065C00C0E0C0D06A
:10066000758CFF758A9C0511E51170020510051344
:10067000E51370020512E511B48820E510B4131BD0
:10068000853317853418753300753400751000757F
:100690001100E51964017003752A01D3E513953043
:1006A000E512952F5002D2B0D3E5139530E512959F
:1006B0002F4002C2B0C3E5139464E51294004006D3
:0606C00075120075130025
:0506C600D0D0D0E032AD
:0300030002079F52
:0D079F00C0E00534E53470020533D0E032CF
:10078000E4FFEFC3940A748094805012E4FEEEC339
:0E07900094217480948050030E80F30F80E457
:01079E002238
:1002480075900FAF90EF640F7003020436AF90EF14
:1002580024F5700302030824FE700302039D147042
:1002680003020409240760030204367590F0AF9076
:10027800EF2490605D24C0603E24E0601F24F0708D
:1002880073E5147007F528752901804FAE28AF294A
:100298007C007D0A1201D3EF24018052E514700717
:1002A800F5287529028034AE28AF297C007D0A1212
:1002B80001D3EF24028037E5147007F52875290368
:1002C8008019AE28AF297C007D0A1201D3EF2403E0
:1002D800801CE514700AF52875290475140180142A
:1002E800AE28AF297C007D0A1201D3EF2404F5293A
:1002F800E43EF528AF90EF64F0700302043680F412
:100308007590F0AF90EF2490605D24C0603E24E0CB
:10031800601F24F07073E5147007F52875290580AF
:100328004FAE28AF297C007D0A1201D3EF24058047
:1003380052E5147007F5287529068034AE28AF29D0
:100348007C007D0A1201D3EF24068037E51470077C
:10035800F5287529078019AE28AF297C007D0A1277
:1003680001D3EF2407801CE514700AF528752908C5
:100378007514018014AE28AF297C007D0A1201D3C0
:10038800EF2408F529E43EF528AF90EF64F07003F8
:1003980002043680F47590F0AF90EF2490605224F8
:1003A800C0604324E0602824F0704DE514700AF51D
:1003B80028752909751401803FAE28AF297C007D76
:1003C8000A1201D3EF2409F529E43EF5288029E52E
:1003D800147002801DAE28AF297C007D0A1201D35B
:1003E8008E288F298012852815852916E4F5148012
:1003F80007E4F528F529F514AF90EF64F0602F8035
:10040800F77590F0AF90EF2430600D24F0701875F8
:100418001901C2A6D2A7800FE4F519F52FF530F51A
:0E04280031F532C2A6C2A7AF90EF64F070F9B2
:0104360022A3
:1006CB00EF24FE601614601B14602214602D14605E
:1006DB003824057040C2A0D2A18004D2A0C2A1D2FE
:1006EB00A28006D2A0D2A1C2A2D2A38008D2A0D24D
:1006FB00A1D2A2C2A3D2A4D2A5801AD2A0D2A1D237
:10070B00A2D2A3C2A4D2A5800CD2A0D2A1D2A2D233
:0D071B00A3D2A4C2A5ED9007AC93F58022F7
:10000E00EC4D6011E8497017ED33EC3304600DE4EC
:10001E00FCFFFEFD22E933E8330470F80201BE1244
:10002E00018958046009E4CC248150062850090245
:10003E0001C82840030201C5C0E0EB4A7044B980F4
:10004E0006D0E0FB0201B4EF4E701CBD8008EBFF42
:10005E00EAFEE9FD80EBE98DF0A4FEE5F00200F783
:10006E00E9CDF9EAFEEBFFEF89F0A4FCE5F0CE89CD
:10007E00F0A42EFFE435F0CD89F0A42DFEE435F08A
:10008E008067EF4E7005BD80D780C3EF8BF0A4ACB8
:10009E00F0EE8BF0A42CFCE435F0F8EF8AF0A42CF3
:1000AE00E5F038FCE433CB8DF0A42CFCE5F03BF806
:1000BE00EE8AF0A42CFCE5F038F8E433CF89F0A4F6
:1000CE002CFCE5F038CF3400CE89F0A42FFFE5F0FC
:1000DE003EFEE433C98DF0A42EFEE5F039CD8AF054
:1000EE00A42FFFE5F03EFEE43DFD33D0E0FB5007CC
:1000FE000BBB000F0201C8EC2CFCEF33FFEE33FEFE
:06010E00ED33FD0201A02B
:1001140075F020800E75F010800575F0087D007E66
:10012400007F003392D530D50312023AEC334010ED
:10013400EF33FFEE33FEED33FDEC33FCD5F0ED226F
:0E014400E5F0247EA2D513CC92E7CDCEFF22AB
:10015200EDD2E7CD33EC3392D524814006E4FFFEA5
:10016200FDFC22FCE4CFCECDCC24E0501174FF8004
:10017200EDC3CC13CCCD13CDCE13CECF13CF0470A1
:07018200F030D5DE02023A65
:10018900E9D2E7C933E833F892D5EDD2E7CD33ECBC
:0701990033FC5002B2D52235
:1001A000EC30E7100FBF000C0EBE00080DBD0004C0
:1001B0000BEB6014A2D5EB13FCED92E7FD2274FF6C
:1001C000FCFDFEFF22E480F8A2D574FF13FC7D80C5
:0301D000E480EFD9
:1005DC00020437E493A3F8E493A34003F68001F2FA
:1005EC0008DFF48029E493A3F85407240CC8C33320
:1005FC00C4540F4420C8834004F456800146F6DFEF
:10060C00E4800B0102040810204080900728E47E4F
:10061C00019360BCA3FF543F30E509541FFEE493E3
:10062C00A360010ECF54C025E060A840B8E493A3AA
:10063C00FAE493A3F8E493A3C8C582C8CAC583CAD5
:10064C00F0A3C8C582C8CAC583CADFE9DEE780BE8D
:01077F000079
:1001D300EF8DF0A4A8F0CF8CF0A428CE8DF0A42E40
:0201E300FE22FA
:1001E500BC000BBE0029EF8DF084FFADF022E4CCFE
:1001F500F875F008EF2FFFEE33FEEC33FCEE9DECC7
:10020500984005FCEE9DFE0FD5F0E9E4CEFD22ED0C
:10021500F8F5F0EE8420D21CFEADF075F008EF2F56
:10022500FFED33FD4007985006D5F0F222C398FD47
:050235000FD5F0EA22E4
:0E023A00C3E49FFFE49EFEE49DFDE49CFC22D5
:00000001FF
